:020000040000FA
:060000002BEF01F01200DD
:0A0006000100740200000001000078
:040010008800000064
:0C001400D9CFE6FFE1CFD9FFE652DF6A4A
:1000200050D8BDEC00F0C9EC00F0DF6E640EE66E57
:1000300004EC01F0E552DF50680A37E00F0A2EE0C9
:10004000010A27E0030A20E0010A19E0070A12E08A
:10005000010A0BE0030A04E08D908D928494E3D7AB
:100060008D80000EE66E010E26D08D90120EE66E8B
:10007000010E21D08D82220EE66E010E1CD08D92D3
:10008000340EE66E010E17D08484440EE66E010E27
:1000900012D08494560EE66E010E0DD08D808D82A6
:1000A0008484660EE66E010E06D08D908D92849447
:1000B000780EE66E010EE66EE6EC00F0E552E552D3
:1000C000B2D78F0ED3146009D36E9B8CC168969003
:0C00D000969296948D908D92849412006C
:0400DC00060EF66EA8
:1000E000000EF76E000EF86E01010900F5508D6FDD
:1000F0000900F5508E6F03E18D6701D03DD00900F6
:10010000F550886F0900F550896F0900F5508A6F26
:1001100009000900F550E96E0900F550EA6E090082
:1001200009000900F5508B6F0900F5508C6F09002C
:100130000900F6CF8FF1F7CF90F1F8CF91F188C198
:10014000F6FF89C1F7FF8AC1F8FF01018B5302E175
:100150008C5307E00900F550EE6E8B07F8E28C0730
:10016000F9D78FC1F6FF90C1F7FF91C1F8FF0101E8
:0A0170008D07000E8E5BBFD7120052
:06017A00948E949CAC6A17
:10018000AB6A200EAC6E190EAF6E900EAB6EB86AF5
:100190001200D9CFE6FFE1CFD9FFE6529EAAFED7E3
:1001A000AE50DF6E9E9ADF50E552E552E7CFD9FFA1
:1001B0001200D9CFE6FFE1CFD9FFFE0EDB50AD6EC6
:1001C000ACA2FED7E552E7CFD9FF1200D9CFE6FFA8
:1001D000E1CFD9FFFD0EDBCFE9FFFE0EDBCFEAFF5B
:1001E000EF500EE0FD0EDBCFE9FFDB2AFE0EDBCF8A
:1001F000EAFF01E3DB2AEF50E66EDBDFE552EAD7E8
:08020000E552E7CFD9FF12001F
:08020800FF0EE350036EEF0E40
:1002100001D0F30EE76EE72E0BEF01F00C0E026E2D
:10022000E76AE72E11EF01F0022E10EF01F0032E26
:0602300009EF01F01200CD
:0A023600800EF36E00EE00F00F0ED4
:1002400001D81200EA6002D0EE6AFCD7F350E960F0
:060250001200EE6AFCD76B
:0A0256001EEE00F02EEE00F0F86A34
:10026000019C6EEC00F039EC01F00AEC00F0FBD7D9
:0202700012007A
:02027200120078
:0C027400204C4544203120456E63656E2F
:100280006469646F0D00204C454420312041706149
:100290006761646F0D00204C4544203220456E6339
:1002A000656E6469646F0D00204C45442032204126
:1002B00070616761646F0D00204C45442033204518
:1002C0006E63656E6469646F0D00204C4544203395
:1002D000204170616761646F0D00204C45447320BC
:1002E000456E63656E6469646F730D00204C454410
:0C02F00073204170616761646F730D0042
:020000040030CA
:01000100C836
:0100020018E5
:010003001EDE
:010005008377
:010006008178
:010008000FE8
:01000900C036
:01000A000FE6
:01000B00E014
:01000C000FE4
:01000D0040B2
:00000001FF
